{
  "transactions": [
    {
      "hash": "0xef424fe823afc4f473da82fc978fc05bc05f726df58e0664e6259e93e045ac56",
      "transactionType": "CALL",
      "contractName": null,
      "contractAddress": "0xd0130a053820f292b1807c246a1074443e491fcb",
      "function": "addToken(address)",
      "arguments": [
        "0x1c7D4B196Cb0C7B01d743Fbc6116a902379C7238"
      ],
      "transaction": {
        "from": "0xcd811e343b71ab6d24ebea2fe8150aa42fe9786a",
        "to": "0xd0130a053820f292b1807c246a1074443e491fcb",
        "gas": "0xf3c5",
        "value": "0x0",
        "input": "0xd48bfca70000000000000000000000001c7d4b196cb0c7b01d743fbc6116a902379c7238",
        "nonce": "0x1",
        "chainId": "0xaa36a7"
      },
      "additionalContracts": [],
      "isFixedGasLimit": false
    },
    {
      "hash": "0x14ab887fe495daf3012252b54ca2947d093419114f3a3d3bd7a8aa598d5ae4d9",
      "transactionType": "CALL",
      "contractName": null,
      "contractAddress": "0xd0130a053820f292b1807c246a1074443e491fcb",
      "function": "addToken(address)",
      "arguments": [
        "0xfFf9976782d46CC05630D1f6eBAb18b2324d6B14"
      ],
      "transaction": {
        "from": "0xcd811e343b71ab6d24ebea2fe8150aa42fe9786a",
        "to": "0xd0130a053820f292b1807c246a1074443e491fcb",
        "gas": "0xf3c5",
        "value": "0x0",
        "input": "0xd48bfca7000000000000000000000000fff9976782d46cc05630d1f6ebab18b2324d6b14",
        "nonce": "0x2",
        "chainId": "0xaa36a7"
      },
      "additionalContracts": [],
      "isFixedGasLimit": false
    }
  ],
  "receipts": [
    {
      "type": "0x2",
      "status": "0x1",
      "cumulativeGasUsed": "0x12d15d3",
      "logs": [
        {
          "address": "0xd0130a053820f292b1807c246a1074443e491fcb",
          "topics": [
            "0x784c8f4dbf0ffedd6e72c76501c545a70f8b203b30a26ce542bf92ba87c248a4",
            "0x0000000000000000000000001c7d4b196cb0c7b01d743fbc6116a902379c7238"
          ],
          "data": "0x",
          "blockHash": "0x2218d2c8aea529517375e5e08a750a69e0d89b6d3bad4c481b4361307dfef77e",
          "blockNumber": "0xa73d24",
          "blockTimestamp": "0x6a1bfa94",
          "transactionHash": "0xef424fe823afc4f473da82fc978fc05bc05f726df58e0664e6259e93e045ac56",
          "transactionIndex": "0xaa",
          "logIndex": "0x263",
          "removed": false
        }
      ],
      "logsBloom": "0x00000000000000000000000000000000000000000000000000000000000000000004000000000000000800000000000000000000000004000000000000000000100000000000000000000000000000000000000000000000000000000000000000000000000000000000000000000000000000000000200000000000000000000000000000000000000000000000000800000000000000000000000000000000000000000000000000200000000000000000008000000000000000000000000000000000000000000000000000000000000000000000000000000000000000000000000000000000000000000000000000000000000000001000000000000000",
      "transactionHash": "0xef424fe823afc4f473da82fc978fc05bc05f726df58e0664e6259e93e045ac56",
      "transactionIndex": "0xaa",
      "blockHash": "0x2218d2c8aea529517375e5e08a750a69e0d89b6d3bad4c481b4361307dfef77e",
      "blockNumber": "0xa73d24",
      "gasUsed": "0xb07d",
      "effectiveGasPrice": "0x3d8e1bb42",
      "from": "0xcd811e343b71ab6d24ebea2fe8150aa42fe9786a",
      "to": "0xd0130a053820f292b1807c246a1074443e491fcb",
      "contractAddress": null
    },
    {
      "type": "0x2",
      "status": "0x1",
      "cumulativeGasUsed": "0x12dc650",
      "logs": [
        {
          "address": "0xd0130a053820f292b1807c246a1074443e491fcb",
          "topics": [
            "0x784c8f4dbf0ffedd6e72c76501c545a70f8b203b30a26ce542bf92ba87c248a4",
            "0x000000000000000000000000fff9976782d46cc05630d1f6ebab18b2324d6b14"
          ],
          "data": "0x",
          "blockHash": "0x2218d2c8aea529517375e5e08a750a69e0d89b6d3bad4c481b4361307dfef77e",
          "blockNumber": "0xa73d24",
          "blockTimestamp": "0x6a1bfa94",
          "transactionHash": "0x14ab887fe495daf3012252b54ca2947d093419114f3a3d3bd7a8aa598d5ae4d9",
          "transactionIndex": "0xab",
          "logIndex": "0x264",
          "removed": false
        }
      ],
      "logsBloom": "0x00000000001000000000000000000000000000000000000000000000000000000004000000000000000800000000000000000800000000000000000000000000000000000000000000000000000000000000000000000000000000000000000000000000000000000000000000000000000000000000200000000000000000000000000000000000000000000000000800000000000000000000000000000000000000000000000000200000000000000000000000000000000000000000000000000000000000000000000001000000000000000000000000000000000000000000000000000000000000000000000000000000000000001000000000000000",
      "transactionHash": "0x14ab887fe495daf3012252b54ca2947d093419114f3a3d3bd7a8aa598d5ae4d9",
      "transactionIndex": "0xab",
      "blockHash": "0x2218d2c8aea529517375e5e08a750a69e0d89b6d3bad4c481b4361307dfef77e",
      "blockNumber": "0xa73d24",
      "gasUsed": "0xb07d",
      "effectiveGasPrice": "0x3d8e1bb42",
      "from": "0xcd811e343b71ab6d24ebea2fe8150aa42fe9786a",
      "to": "0xd0130a053820f292b1807c246a1074443e491fcb",
      "contractAddress": null
    }
  ],
  "libraries": [],
  "pending": [],
  "returns": {},
  "timestamp": 1780218517606,
  "chain": 11155111,
  "commit": "e6c63f7"
}